{
  "contractName": "ARTCollectible",
  "abi": [
    {
      "inputs": [],
      "stateMutability": "nonpayable",
      "type": "constructor"
    },
    {
      "anonymous": false,
      "inputs": [
        {
          "indexed": true,
          "internalType": "address",
          "name": "owner",
          "type": "address"
        },
        {
          "indexed": true,
          "internalType": "address",
          "name": "approved",
          "type": "address"
        },
        {
          "indexed": true,
          "internalType": "uint256",
          "name": "tokenId",
          "type": "uint256"
        }
      ],
      "name": "Approval",
      "type": "event"
    },
    {
      "anonymous": false,
      "inputs": [
        {
          "indexed": true,
          "internalType": "address",
          "name": "owner",
          "type": "address"
        },
        {
          "indexed": true,
          "internalType": "address",
          "name": "operator",
          "type": "address"
        },
        {
          "indexed": false,
          "internalType": "bool",
          "name": "approved",
          "type": "bool"
        }
      ],
      "name": "ApprovalForAll",
      "type": "event"
    },
    {
      "anonymous": false,
      "inputs": [
        {
          "indexed": true,
          "internalType": "address",
          "name": "previousOwner",
          "type": "address"
        },
        {
          "indexed": true,
          "internalType": "address",
          "name": "newOwner",
          "type": "address"
        }
      ],
      "name": "OwnershipTransferred",
      "type": "event"
    },
    {
      "anonymous": false,
      "inputs": [
        {
          "indexed": true,
          "internalType": "address",
          "name": "from",
          "type": "address"
        },
        {
          "indexed": true,
          "internalType": "address",
          "name": "to",
          "type": "address"
        },
        {
          "indexed": true,
          "internalType": "uint256",
          "name": "tokenId",
          "type": "uint256"
        }
      ],
      "name": "Transfer",
      "type": "event"
    },
    {
      "inputs": [],
      "name": "LISTING_PRICE",
      "outputs": [
        {
          "internalType": "uint256",
          "name": "",
          "type": "uint256"
        }
      ],
      "stateMutability": "view",
      "type": "function",
      "constant": true
    },
    {
      "inputs": [],
      "name": "MAX_AMOUNT",
      "outputs": [
        {
          "internalType": "uint256",
          "name": "",
          "type": "uint256"
        }
      ],
      "stateMutability": "view",
      "type": "function",
      "constant": true
    },
    {
      "inputs": [],
      "name": "MAX_TOKEN_ACCOUNT",
      "outputs": [
        {
          "internalType": "uint256",
          "name": "",
          "type": "uint256"
        }
      ],
      "stateMutability": "view",
      "type": "function",
      "constant": true
    },
    {
      "inputs": [
        {
          "internalType": "address",
          "name": "to",
          "type": "address"
        },
        {
          "internalType": "uint256",
          "name": "tokenId",
          "type": "uint256"
        }
      ],
      "name": "approve",
      "outputs": [],
      "stateMutability": "nonpayable",
      "type": "function"
    },
    {
      "inputs": [
        {
          "internalType": "address",
          "name": "owner",
          "type": "address"
        }
      ],
      "name": "balanceOf",
      "outputs": [
        {
          "internalType": "uint256",
          "name": "",
          "type": "uint256"
        }
      ],
      "stateMutability": "view",
      "type": "function",
      "constant": true
    },
    {
      "inputs": [
        {
          "internalType": "uint256",
          "name": "tokenId",
          "type": "uint256"
        }
      ],
      "name": "getApproved",
      "outputs": [
        {
          "internalType": "address",
          "name": "",
          "type": "address"
        }
      ],
      "stateMutability": "view",
      "type": "function",
      "constant": true
    },
    {
      "inputs": [
        {
          "internalType": "address",
          "name": "owner",
          "type": "address"
        },
        {
          "internalType": "address",
          "name": "operator",
          "type": "address"
        }
      ],
      "name": "isApprovedForAll",
      "outputs": [
        {
          "internalType": "bool",
          "name": "",
          "type": "bool"
        }
      ],
      "stateMutability": "view",
      "type": "function",
      "constant": true
    },
    {
      "inputs": [],
      "name": "name",
      "outputs": [
        {
          "internalType": "string",
          "name": "",
          "type": "string"
        }
      ],
      "stateMutability": "view",
      "type": "function",
      "constant": true
    },
    {
      "inputs": [],
      "name": "owner",
      "outputs": [
        {
          "internalType": "address",
          "name": "",
          "type": "address"
        }
      ],
      "stateMutability": "view",
      "type": "function",
      "constant": true
    },
    {
      "inputs": [
        {
          "internalType": "uint256",
          "name": "tokenId",
          "type": "uint256"
        }
      ],
      "name": "ownerOf",
      "outputs": [
        {
          "internalType": "address",
          "name": "",
          "type": "address"
        }
      ],
      "stateMutability": "view",
      "type": "function",
      "constant": true
    },
    {
      "inputs": [],
      "name": "renounceOwnership",
      "outputs": [],
      "stateMutability": "nonpayable",
      "type": "function"
    },
    {
      "inputs": [
        {
          "internalType": "address",
          "name": "from",
          "type": "address"
        },
        {
          "internalType": "address",
          "name": "to",
          "type": "address"
        },
        {
          "internalType": "uint256",
          "name": "tokenId",
          "type": "uint256"
        }
      ],
      "name": "safeTransferFrom",
      "outputs": [],
      "stateMutability": "nonpayable",
      "type": "function"
    },
    {
      "inputs": [
        {
          "internalType": "address",
          "name": "from",
          "type": "address"
        },
        {
          "internalType": "address",
          "name": "to",
          "type": "address"
        },
        {
          "internalType": "uint256",
          "name": "tokenId",
          "type": "uint256"
        },
        {
          "internalType": "bytes",
          "name": "_data",
          "type": "bytes"
        }
      ],
      "name": "safeTransferFrom",
      "outputs": [],
      "stateMutability": "nonpayable",
      "type": "function"
    },
    {
      "inputs": [
        {
          "internalType": "address",
          "name": "operator",
          "type": "address"
        },
        {
          "internalType": "bool",
          "name": "approved",
          "type": "bool"
        }
      ],
      "name": "setApprovalForAll",
      "outputs": [],
      "stateMutability": "nonpayable",
      "type": "function"
    },
    {
      "inputs": [
        {
          "internalType": "bytes4",
          "name": "interfaceId",
          "type": "bytes4"
        }
      ],
      "name": "supportsInterface",
      "outputs": [
        {
          "internalType": "bool",
          "name": "",
          "type": "bool"
        }
      ],
      "stateMutability": "view",
      "type": "function",
      "constant": true
    },
    {
      "inputs": [],
      "name": "symbol",
      "outputs": [
        {
          "internalType": "string",
          "name": "",
          "type": "string"
        }
      ],
      "stateMutability": "view",
      "type": "function",
      "constant": true
    },
    {
      "inputs": [],
      "name": "totalSupply",
      "outputs": [
        {
          "internalType": "uint256",
          "name": "",
          "type": "uint256"
        }
      ],
      "stateMutability": "view",
      "type": "function",
      "constant": true
    },
    {
      "inputs": [
        {
          "internalType": "address",
          "name": "from",
          "type": "address"
        },
        {
          "internalType": "address",
          "name": "to",
          "type": "address"
        },
        {
          "internalType": "uint256",
          "name": "tokenId",
          "type": "uint256"
        }
      ],
      "name": "transferFrom",
      "outputs": [],
      "stateMutability": "nonpayable",
      "type": "function"
    },
    {
      "inputs": [
        {
          "internalType": "address",
          "name": "newOwner",
          "type": "address"
        }
      ],
      "name": "transferOwnership",
      "outputs": [],
      "stateMutability": "nonpayable",
      "type": "function"
    },
    {
      "inputs": [
        {
          "internalType": "uint256",
          "name": "tokenQuantity",
          "type": "uint256"
        },
        {
          "internalType": "string",
          "name": "_tokenURI",
          "type": "string"
        }
      ],
      "name": "mintfromWeb",
      "outputs": [],
      "stateMutability": "payable",
      "type": "function",
      "payable": true
    },
    {
      "inputs": [
        {
          "internalType": "string",
          "name": "baseURI_",
          "type": "string"
        }
      ],
      "name": "setBaseURI",
      "outputs": [],
      "stateMutability": "nonpayable",
      "type": "function"
    },
    {
      "inputs": [
        {
          "internalType": "uint256",
          "name": "tokenId",
          "type": "uint256"
        }
      ],
      "name": "tokenURI",
      "outputs": [
        {
          "internalType": "string",
          "name": "",
          "type": "string"
        }
      ],
      "stateMutability": "view",
      "type": "function",
      "constant": true
    },
    {
      "inputs": [
        {
          "internalType": "address",
          "name": "treasury",
          "type": "address"
        }
      ],
      "name": "withdraw",
      "outputs": [],
      "stateMutability": "payable",
      "type": "function",
      "payable": true
    }
  ],
  "bytecode": "0x608060405260006009553480156200001657600080fd5b506040518060400160405280601281526020017f61727467617465436f6c6c65637469626c6500000000000000000000000000008152506040518060400160405280600481526020017f4152544700000000000000000000000000000000000000000000000000000000815250620000a362000097620000dd60201b60201c565b620000e560201b60201c565b8160019080519060200190620000bb929190620001a9565b508060029080519060200190620000d4929190620001a9565b505050620002be565b600033905090565b60008060009054906101000a900473ffffffffffffffffffffffffffffffffffffffff169050816000806101000a81548173ffffffffffffffffffffffffffffffffffffffff021916908373ffffffffffffffffffffffffffffffffffffffff1602179055508173ffffffffffffffffffffffffffffffffffffffff168173ffffffffffffffffffffffffffffffffffffffff167f8be0079c531659141344cd1fd0a4f28419497f9722a3daafe3b4186f6b6457e060405160405180910390a35050565b828054620001b79062000259565b90600052602060002090601f016020900481019282620001db576000855562000227565b82601f10620001f657805160ff191683800117855562000227565b8280016001018555821562000227579182015b828111156200022657825182559160200191906001019062000209565b5b5090506200023691906200023a565b5090565b5b80821115620002555760008160009055506001016200023b565b5090565b600060028204905060018216806200027257607f821691505b602082108114156200028957620002886200028f565b5b50919050565b7f4e487b7100000000000000000000000000000000000000000000000000000000600052602260045260246000fd5b61351180620002ce6000396000f3fe6080604052600436106101405760003560e01c806370a08231116100b6578063a22cb4651161006f578063a22cb4651461042e578063b88d4fde14610457578063c87b56dd14610480578063d40dc870146104bd578063e985e9c5146104e8578063f2fde38b1461052557610140565b806370a082311461032e578063715018a61461036b57806373956761146103825780637860f6df146103ad5780638da5cb5b146103d857806395d89b411461040357610140565b806318160ddd1161010857806318160ddd1461022f57806323b872dd1461025a57806342842e0e1461028357806351cff8d9146102ac57806355f804b3146102c85780636352211e146102f157610140565b806301ffc9a7146101455780630450d5921461018257806306fdde031461019e578063081812fc146101c9578063095ea7b314610206575b600080fd5b34801561015157600080fd5b5061016c60048036038101906101679190612352565b61054e565b6040516101799190612872565b60405180910390f35b61019c60048036038101906101979190612422565b610630565b005b3480156101aa57600080fd5b506101b3610754565b6040516101c0919061288d565b60405180910390f35b3480156101d557600080fd5b506101f060048036038101906101eb91906123f5565b6107e6565b6040516101fd919061280b565b60405180910390f35b34801561021257600080fd5b5061022d60048036038101906102289190612312565b61086b565b005b34801561023b57600080fd5b50610244610983565b6040516102519190612b0f565b60405180910390f35b34801561026657600080fd5b50610281600480360381019061027c91906121fc565b610989565b005b34801561028f57600080fd5b506102aa60048036038101906102a591906121fc565b6109e9565b005b6102c660048036038101906102c1919061218f565b610a09565b005b3480156102d457600080fd5b506102ef60048036038101906102ea91906123ac565b610ac6565b005b3480156102fd57600080fd5b50610318600480360381019061031391906123f5565b610b5c565b604051610325919061280b565b60405180910390f35b34801561033a57600080fd5b506103556004803603810190610350919061218f565b610c0e565b6040516103629190612b0f565b60405180910390f35b34801561037757600080fd5b50610380610cc6565b005b34801561038e57600080fd5b50610397610d4e565b6040516103a49190612b0f565b60405180910390f35b3480156103b957600080fd5b506103c2610d59565b6040516103cf9190612b0f565b60405180910390f35b3480156103e457600080fd5b506103ed610d5e565b6040516103fa919061280b565b60405180910390f35b34801561040f57600080fd5b50610418610d87565b604051610425919061288d565b60405180910390f35b34801561043a57600080fd5b50610455600480360381019061045091906122d2565b610e19565b005b34801561046357600080fd5b5061047e6004803603810190610479919061224f565b610e2f565b005b34801561048c57600080fd5b506104a760048036038101906104a291906123f5565b610e91565b6040516104b4919061288d565b60405180910390f35b3480156104c957600080fd5b506104d2610fcf565b6040516104df9190612b0f565b60405180910390f35b3480156104f457600080fd5b5061050f600480360381019061050a91906121bc565b610fd5565b60405161051c9190612872565b60405180910390f35b34801561053157600080fd5b5061054c6004803603810190610547919061218f565b611069565b005b60007f80ac58cd000000000000000000000000000000000000000000000000000000007bffffffffffffffffffffffffffffffffffffffffffffffffffffffff1916827bffffffffffffffffffffffffffffffffffffffffffffffffffffffff1916148061061957507f5b5e139f000000000000000000000000000000000000000000000000000000007bffffffffffffffffffffffffffffffffffffffffffffffffffffffff1916827bffffffffffffffffffffffffffffffffffffffffffffffffffffffff1916145b80610629575061062882611161565b5b9050919050565b6101f4826009546106419190612bf4565b1115610682576040517f08c379a0000000000000000000000000000000000000000000000000000000008152600401610679906128af565b60405180910390fd5b3482662386f26fc100006106969190612c7b565b11156106d7576040517f08c379a00000000000000000000000000000000000000000000000000000000081526004016106ce90612a0f565b60405180910390fd5b6064826106e333610c0e565b6106ed9190612bf4565b111561072e576040517f08c379a000000000000000000000000000000000000000000000000000000000815260040161072590612a4f565b60405180910390fd5b610737816111cb565b506009600081548092919061074b90612e22565b91905055505050565b60606001805461076390612dbf565b80601f016020809104026020016040519081016040528092919081815260200182805461078f90612dbf565b80156107dc5780601f106107b1576101008083540402835291602001916107dc565b820191906000526020600020905b8154815290600101906020018083116107bf57829003601f168201915b5050505050905090565b60006107f182611202565b610830576040517f08c379a000000000000000000000000000000000000000000000000000000000815260040161082790612a6f565b60405180910390fd5b6005600083815260200190815260200160002060009054906101000a900473ffffffffffffffffffffffffffffffffffffffff169050919050565b600061087682610b5c565b90508073ffffffffffffffffffffffffffffffffffffffff168373ffffffffffffffffffffffffffffffffffffffff1614156108e7576040517f08c379a00000000000000000000000000000000000000000000000000000000081526004016108de90612acf565b60405180910390fd5b8073ffffffffffffffffffffffffffffffffffffffff1661090661126e565b73ffffffffffffffffffffffffffffffffffffffff16148061093557506109348161092f61126e565b610fd5565b5b610974576040517f08c379a000000000000000000000000000000000000000000000000000000000815260040161096b906129af565b60405180910390fd5b61097e8383611276565b505050565b60095481565b61099a61099461126e565b8261132f565b6109d9576040517f08c379a00000000000000000000000000000000000000000000000000000000081526004016109d090612aef565b60405180910390fd5b6109e483838361140d565b505050565b610a0483838360405180602001604052806000815250610e2f565b505050565b610a1161126e565b73ffffffffffffffffffffffffffffffffffffffff16610a2f610d5e565b73ffffffffffffffffffffffffffffffffffffffff1614610a85576040517f08c379a0000000000000000000000000000000000000000000000000000000008152600401610a7c90612aaf565b60405180910390fd5b8073ffffffffffffffffffffffffffffffffffffffff166108fc479081150290604051600060405180830381858888f19350505050610ac357600080fd5b50565b610ace61126e565b73ffffffffffffffffffffffffffffffffffffffff16610aec610d5e565b73ffffffffffffffffffffffffffffffffffffffff1614610b42576040517f08c379a0000000000000000000000000000000000000000000000000000000008152600401610b3990612aaf565b60405180910390fd5b80600a9080519060200190610b58929190611fa3565b5050565b6000806003600084815260200190815260200160002060009054906101000a900473ffffffffffffffffffffffffffffffffffffffff169050600073ffffffffffffffffffffffffffffffffffffffff168173ffffffffffffffffffffffffffffffffffffffff161415610c05576040517f08c379a0000000000000000000000000000000000000000000000000000000008152600401610bfc906129ef565b60405180910390fd5b80915050919050565b60008073ffffffffffffffffffffffffffffffffffffffff168273ffffffffffffffffffffffffffffffffffffffff161415610c7f576040517f08c379a0000000000000000000000000000000000000000000000000000000008152600401610c76906129cf565b60405180910390fd5b600460008373ffffffffffffffffffffffffffffffffffffffff1673ffffffffffffffffffffffffffffffffffffffff168152602001908152602001600020549050919050565b610cce61126e565b73ffffffffffffffffffffffffffffffffffffffff16610cec610d5e565b73ffffffffffffffffffffffffffffffffffffffff1614610d42576040517f08c379a0000000000000000000000000000000000000000000000000000000008152600401610d3990612aaf565b60405180910390fd5b610d4c6000611674565b565b662386f26fc1000081565b606481565b60008060009054906101000a900473ffffffffffffffffffffffffffffffffffffffff16905090565b606060028054610d9690612dbf565b80601f0160208091040260200160405190810160405280929190818152602001828054610dc290612dbf565b8015610e0f5780601f10610de457610100808354040283529160200191610e0f565b820191906000526020600020905b815481529060010190602001808311610df257829003601f168201915b5050505050905090565b610e2b610e2461126e565b8383611738565b5050565b610e40610e3a61126e565b8361132f565b610e7f576040517f08c379a0000000000000000000000000000000000000000000000000000000008152600401610e7690612aef565b60405180910390fd5b610e8b848484846118a5565b50505050565b6060610e9c82611202565b610edb576040517f08c379a0000000000000000000000000000000000000000000000000000000008152600401610ed290612a8f565b60405180910390fd5b6000600860008481526020019081526020016000208054610efb90612dbf565b80601f0160208091040260200160405190810160405280929190818152602001828054610f2790612dbf565b8015610f745780601f10610f4957610100808354040283529160200191610f74565b820191906000526020600020905b815481529060010190602001808311610f5757829003601f168201915b505050505090506000610f85611901565b9050600081511415610f9b578192505050610fca565b80610fa585611993565b604051602001610fb69291906127e7565b604051602081830303815290604052925050505b919050565b6101f481565b6000600660008473ffffffffffffffffffffffffffffffffffffffff1673ffffffffffffffffffffffffffffffffffffffff16815260200190815260200160002060008373ffffffffffffffffffffffffffffffffffffffff1673ffffffffffffffffffffffffffffffffffffffff16815260200190815260200160002060009054906101000a900460ff16905092915050565b61107161126e565b73ffffffffffffffffffffffffffffffffffffffff1661108f610d5e565b73ffffffffffffffffffffffffffffffffffffffff16146110e5576040517f08c379a00000000000000000000000000000000000000000000000000000000081526004016110dc90612aaf565b60405180910390fd5b600073ffffffffffffffffffffffffffffffffffffffff168173ffffffffffffffffffffffffffffffffffffffff161415611155576040517f08c379a000000000000000000000000000000000000000000000000000000000815260040161114c906128ef565b60405180910390fd5b61115e81611674565b50565b60007f01ffc9a7000000000000000000000000000000000000000000000000000000007bffffffffffffffffffffffffffffffffffffffffffffffffffffffff1916827bffffffffffffffffffffffffffffffffffffffffffffffffffffffff1916149050919050565b60006111d76007611af4565b60006111e36007611b0a565b90506111ef3382611b18565b6111f98184611b36565b80915050919050565b60008073ffffffffffffffffffffffffffffffffffffffff166003600084815260200190815260200160002060009054906101000a900473ffffffffffffffffffffffffffffffffffffffff1673ffffffffffffffffffffffffffffffffffffffff1614159050919050565b600033905090565b816005600083815260200190815260200160002060006101000a81548173ffffffffffffffffffffffffffffffffffffffff021916908373ffffffffffffffffffffffffffffffffffffffff160217905550808273ffffffffffffffffffffffffffffffffffffffff166112e983610b5c565b73ffffffffffffffffffffffffffffffffffffffff167f8c5be1e5ebec7d5bd14f71427d1e84f3dd0314c0f7b2291e5b200ac8c7c3b92560405160405180910390a45050565b600061133a82611202565b611379576040517f08c379a00000000000000000000000000000000000000000000000000000000081526004016113709061298f565b60405180910390fd5b600061138483610b5c565b90508073ffffffffffffffffffffffffffffffffffffffff168473ffffffffffffffffffffffffffffffffffffffff1614806113f357508373ffffffffffffffffffffffffffffffffffffffff166113db846107e6565b73ffffffffffffffffffffffffffffffffffffffff16145b8061140457506114038185610fd5565b5b91505092915050565b8273ffffffffffffffffffffffffffffffffffffffff1661142d82610b5c565b73ffffffffffffffffffffffffffffffffffffffff1614611483576040517f08c379a000000000000000000000000000000000000000000000000000000000815260040161147a9061290f565b60405180910390fd5b600073ffffffffffffffffffffffffffffffffffffffff168273ffffffffffffffffffffffffffffffffffffffff1614156114f3576040517f08c379a00000000000000000000000000000000000000000000000000000000081526004016114ea9061294f565b60405180910390fd5b6114fe838383611baa565b611509600082611276565b6001600460008573ffffffffffffffffffffffffffffffffffffffff1673ffffffffffffffffffffffffffffffffffffffff16815260200190815260200160002060008282546115599190612cd5565b925050819055506001600460008473ffffffffffffffffffffffffffffffffffffffff1673ffffffffffffffffffffffffffffffffffffffff16815260200190815260200160002060008282546115b09190612bf4565b92505081905550816003600083815260200190815260200160002060006101000a81548173ffffffffffffffffffffffffffffffffffffffff021916908373ffffffffffffffffffffffffffffffffffffffff160217905550808273ffffffffffffffffffffffffffffffffffffffff168473ffffffffffffffffffffffffffffffffffffffff167fddf252ad1be2c89b69c2b068fc378daa952ba7f163c4a11628f55a4df523b3ef60405160405180910390a461166f838383611baf565b505050565b60008060009054906101000a900473ffffffffffffffffffffffffffffffffffffffff169050816000806101000a81548173ffffffffffffffffffffffffffffffffffffffff021916908373ffffffffffffffffffffffffffffffffffffffff1602179055508173ffffffffffffffffffffffffffffffffffffffff168173ffffffffffffffffffffffffffffffffffffffff167f8be0079c531659141344cd1fd0a4f28419497f9722a3daafe3b4186f6b6457e060405160405180910390a35050565b8173ffffffffffffffffffffffffffffffffffffffff168373ffffffffffffffffffffffffffffffffffffffff1614156117a7576040517f08c379a000000000000000000000000000000000000000000000000000000000815260040161179e9061296f565b60405180910390fd5b80600660008573ffffffffffffffffffffffffffffffffffffffff1673ffffffffffffffffffffffffffffffffffffffff16815260200190815260200160002060008473ffffffffffffffffffffffffffffffffffffffff1673ffffffffffffffffffffffffffffffffffffffff16815260200190815260200160002060006101000a81548160ff0219169083151502179055508173ffffffffffffffffffffffffffffffffffffffff168373ffffffffffffffffffffffffffffffffffffffff167f17307eab39ab6107e8899845ad3d59bd9653f200f220920489ca2b5937696c31836040516118989190612872565b60405180910390a3505050565b6118b084848461140d565b6118bc84848484611bb4565b6118fb576040517f08c379a00000000000000000000000000000000000000000000000000000000081526004016118f2906128cf565b60405180910390fd5b50505050565b6060600a805461191090612dbf565b80601f016020809104026020016040519081016040528092919081815260200182805461193c90612dbf565b80156119895780601f1061195e57610100808354040283529160200191611989565b820191906000526020600020905b81548152906001019060200180831161196c57829003601f168201915b5050505050905090565b606060008214156119db576040518060400160405280600181526020017f30000000000000000000000000000000000000000000000000000000000000008152509050611aef565b600082905060005b60008214611a0d5780806119f690612e22565b915050600a82611a069190612c4a565b91506119e3565b60008167ffffffffffffffff811115611a2957611a28612f58565b5b6040519080825280601f01601f191660200182016040528015611a5b5781602001600182028036833780820191505090505b5090505b60008514611ae857600182611a749190612cd5565b9150600a85611a839190612e6b565b6030611a8f9190612bf4565b60f81b818381518110611aa557611aa4612f29565b5b60200101907effffffffffffffffffffffffffffffffffffffffffffffffffffffffffffff1916908160001a905350600a85611ae19190612c4a565b9450611a5f565b8093505050505b919050565b6001816000016000828254019250508190555050565b600081600001549050919050565b611b32828260405180602001604052806000815250611d4b565b5050565b611b3f82611202565b611b7e576040517f08c379a0000000000000000000000000000000000000000000000000000000008152600401611b7590612a8f565b60405180910390fd5b80600860008481526020019081526020016000209080519060200190611ba5929190611fa3565b505050565b505050565b505050565b6000611bd58473ffffffffffffffffffffffffffffffffffffffff16611da6565b15611d3e578373ffffffffffffffffffffffffffffffffffffffff1663150b7a02611bfe61126e565b8786866040518563ffffffff1660e01b8152600401611c209493929190612826565b602060405180830381600087803b158015611c3a57600080fd5b505af1925050508015611c6b57506040513d601f19601f82011682018060405250810190611c68919061237f565b60015b611cee573d8060008114611c9b576040519150601f19603f3d011682016040523d82523d6000602084013e611ca0565b606091505b50600081511415611ce6576040517f08c379a0000000000000000000000000000000000000000000000000000000008152600401611cdd906128cf565b60405180910390fd5b805181602001fd5b63150b7a0260e01b7bffffffffffffffffffffffffffffffffffffffffffffffffffffffff1916817bffffffffffffffffffffffffffffffffffffffffffffffffffffffff191614915050611d43565b600190505b949350505050565b611d558383611dc9565b611d626000848484611bb4565b611da1576040517f08c379a0000000000000000000000000000000000000000000000000000000008152600401611d98906128cf565b60405180910390fd5b505050565b6000808273ffffffffffffffffffffffffffffffffffffffff163b119050919050565b600073ffffffffffffffffffffffffffffffffffffffff168273ffffffffffffffffffffffffffffffffffffffff161415611e39576040517f08c379a0000000000000000000000000000000000000000000000000000000008152600401611e3090612a2f565b60405180910390fd5b611e4281611202565b15611e82576040517f08c379a0000000000000000000000000000000000000000000000000000000008152600401611e799061292f565b60405180910390fd5b611e8e60008383611baa565b6001600460008473ffffffffffffffffffffffffffffffffffffffff1673ffffffffffffffffffffffffffffffffffffffff1681526020019081526020016000206000828254611ede9190612bf4565b92505081905550816003600083815260200190815260200160002060006101000a81548173ffffffffffffffffffffffffffffffffffffffff021916908373ffffffffffffffffffffffffffffffffffffffff160217905550808273ffffffffffffffffffffffffffffffffffffffff16600073ffffffffffffffffffffffffffffffffffffffff167fddf252ad1be2c89b69c2b068fc378daa952ba7f163c4a11628f55a4df523b3ef60405160405180910390a4611f9f60008383611baf565b5050565b828054611faf90612dbf565b90600052602060002090601f016020900481019282611fd15760008555612018565b82601f10611fea57805160ff1916838001178555612018565b82800160010185558215612018579182015b82811115612017578251825591602001919060010190611ffc565b5b5090506120259190612029565b5090565b5b8082111561204257600081600090555060010161202a565b5090565b600061205961205484612b4f565b612b2a565b90508281526020810184848401111561207557612074612f8c565b5b612080848285612d7d565b509392505050565b600061209b61209684612b80565b612b2a565b9050828152602081018484840111156120b7576120b6612f8c565b5b6120c2848285612d7d565b509392505050565b6000813590506120d98161347f565b92915050565b6000813590506120ee81613496565b92915050565b600081359050612103816134ad565b92915050565b600081519050612118816134ad565b92915050565b600082601f83011261213357612132612f87565b5b8135612143848260208601612046565b91505092915050565b600082601f83011261216157612160612f87565b5b8135612171848260208601612088565b91505092915050565b600081359050612189816134c4565b92915050565b6000602082840312156121a5576121a4612f96565b5b60006121b3848285016120ca565b91505092915050565b600080604083850312156121d3576121d2612f96565b5b60006121e1858286016120ca565b92505060206121f2858286016120ca565b9150509250929050565b60008060006060848603121561221557612214612f96565b5b6000612223868287016120ca565b9350506020612234868287016120ca565b92505060406122458682870161217a565b9150509250925092565b6000806000806080858703121561226957612268612f96565b5b6000612277878288016120ca565b9450506020612288878288016120ca565b93505060406122998782880161217a565b925050606085013567ffffffffffffffff8111156122ba576122b9612f91565b5b6122c68782880161211e565b91505092959194509250565b600080604083850312156122e9576122e8612f96565b5b60006122f7858286016120ca565b9250506020612308858286016120df565b9150509250929050565b6000806040838503121561232957612328612f96565b5b6000612337858286016120ca565b92505060206123488582860161217a565b9150509250929050565b60006020828403121561236857612367612f96565b5b6000612376848285016120f4565b91505092915050565b60006020828403121561239557612394612f96565b5b60006123a384828501612109565b91505092915050565b6000602082840312156123c2576123c1612f96565b5b600082013567ffffffffffffffff8111156123e0576123df612f91565b5b6123ec8482850161214c565b91505092915050565b60006020828403121561240b5761240a612f96565b5b60006124198482850161217a565b91505092915050565b6000806040838503121561243957612438612f96565b5b60006124478582860161217a565b925050602083013567ffffffffffffffff81111561246857612467612f91565b5b6124748582860161214c565b9150509250929050565b61248781612d09565b82525050565b61249681612d1b565b82525050565b60006124a782612bb1565b6124b18185612bc7565b93506124c1818560208601612d8c565b6124ca81612f9b565b840191505092915050565b60006124e082612bbc565b6124ea8185612bd8565b93506124fa818560208601612d8c565b61250381612f9b565b840191505092915050565b600061251982612bbc565b6125238185612be9565b9350612533818560208601612d8c565b80840191505092915050565b600061254c601083612bd8565b915061255782612fac565b602082019050919050565b600061256f603283612bd8565b915061257a82612fd5565b604082019050919050565b6000612592602683612bd8565b915061259d82613024565b604082019050919050565b60006125b5602583612bd8565b91506125c082613073565b604082019050919050565b60006125d8601c83612bd8565b91506125e3826130c2565b602082019050919050565b60006125fb602483612bd8565b9150612606826130eb565b604082019050919050565b600061261e601983612bd8565b91506126298261313a565b602082019050919050565b6000612641602c83612bd8565b915061264c82613163565b604082019050919050565b6000612664603883612bd8565b915061266f826131b2565b604082019050919050565b6000612687602a83612bd8565b915061269282613201565b604082019050919050565b60006126aa602983612bd8565b91506126b582613250565b604082019050919050565b60006126cd601783612bd8565b91506126d88261329f565b602082019050919050565b60006126f0602083612bd8565b91506126fb826132c8565b602082019050919050565b6000612713601983612bd8565b915061271e826132f1565b602082019050919050565b6000612736602c83612bd8565b91506127418261331a565b604082019050919050565b6000612759602c83612bd8565b915061276482613369565b604082019050919050565b600061277c602083612bd8565b9150612787826133b8565b602082019050919050565b600061279f602183612bd8565b91506127aa826133e1565b604082019050919050565b60006127c2603183612bd8565b91506127cd82613430565b604082019050919050565b6127e181612d73565b82525050565b60006127f3828561250e565b91506127ff828461250e565b91508190509392505050565b6000602082019050612820600083018461247e565b92915050565b600060808201905061283b600083018761247e565b612848602083018661247e565b61285560408301856127d8565b8181036060830152612867818461249c565b905095945050505050565b6000602082019050612887600083018461248d565b92915050565b600060208201905081810360008301526128a781846124d5565b905092915050565b600060208201905081810360008301526128c88161253f565b9050919050565b600060208201905081810360008301526128e881612562565b9050919050565b6000602082019050818103600083015261290881612585565b9050919050565b60006020820190508181036000830152612928816125a8565b9050919050565b60006020820190508181036000830152612948816125cb565b9050919050565b60006020820190508181036000830152612968816125ee565b9050919050565b6000602082019050818103600083015261298881612611565b9050919050565b600060208201905081810360008301526129a881612634565b9050919050565b600060208201905081810360008301526129c881612657565b9050919050565b600060208201905081810360008301526129e88161267a565b9050919050565b60006020820190508181036000830152612a088161269d565b9050919050565b60006020820190508181036000830152612a28816126c0565b9050919050565b60006020820190508181036000830152612a48816126e3565b9050919050565b60006020820190508181036000830152612a6881612706565b9050919050565b60006020820190508181036000830152612a8881612729565b9050919050565b60006020820190508181036000830152612aa88161274c565b9050919050565b60006020820190508181036000830152612ac88161276f565b9050919050565b60006020820190508181036000830152612ae881612792565b9050919050565b60006020820190508181036000830152612b08816127b5565b9050919050565b6000602082019050612b2460008301846127d8565b92915050565b6000612b34612b45565b9050612b408282612df1565b919050565b6000604051905090565b600067ffffffffffffffff821115612b6a57612b69612f58565b5b612b7382612f9b565b9050602081019050919050565b600067ffffffffffffffff821115612b9b57612b9a612f58565b5b612ba482612f9b565b9050602081019050919050565b600081519050919050565b600081519050919050565b600082825260208201905092915050565b600082825260208201905092915050565b600081905092915050565b6000612bff82612d73565b9150612c0a83612d73565b9250827fffffffffffffffffffffffffffffffffffffffffffffffffffffffffffffffff03821115612c3f57612c3e612e9c565b5b828201905092915050565b6000612c5582612d73565b9150612c6083612d73565b925082612c7057612c6f612ecb565b5b828204905092915050565b6000612c8682612d73565b9150612c9183612d73565b9250817fffffffffffffffffffffffffffffffffffffffffffffffffffffffffffffffff0483118215151615612cca57612cc9612e9c565b5b828202905092915050565b6000612ce082612d73565b9150612ceb83612d73565b925082821015612cfe57612cfd612e9c565b5b828203905092915050565b6000612d1482612d53565b9050919050565b60008115159050919050565b60007fffffffff0000000000000000000000000000000000000000000000000000000082169050919050565b600073ffffffffffffffffffffffffffffffffffffffff82169050919050565b6000819050919050565b82818337600083830152505050565b60005b83811015612daa578082015181840152602081019050612d8f565b83811115612db9576000848401525b50505050565b60006002820490506001821680612dd757607f821691505b60208210811415612deb57612dea612efa565b5b50919050565b612dfa82612f9b565b810181811067ffffffffffffffff82111715612e1957612e18612f58565b5b80604052505050565b6000612e2d82612d73565b91507fffffffffffffffffffffffffffffffffffffffffffffffffffffffffffffffff821415612e6057612e5f612e9c565b5b600182019050919050565b6000612e7682612d73565b9150612e8183612d73565b925082612e9157612e90612ecb565b5b828206905092915050565b7f4e487b7100000000000000000000000000000000000000000000000000000000600052601160045260246000fd5b7f4e487b7100000000000000000000000000000000000000000000000000000000600052601260045260246000fd5b7f4e487b7100000000000000000000000000000000000000000000000000000000600052602260045260246000fd5b7f4e487b7100000000000000000000000000000000000000000000000000000000600052603260045260246000fd5b7f4e487b7100000000000000000000000000000000000000000000000000000000600052604160045260246000fd5b600080fd5b600080fd5b600080fd5b600080fd5b6000601f19601f8301169050919050565b7f70726f6a65637420736f6c64206f757400000000000000000000000000000000600082015250565b7f4552433732313a207472616e7366657220746f206e6f6e20455243373231526560008201527f63656976657220696d706c656d656e7465720000000000000000000000000000602082015250565b7f4f776e61626c653a206e6577206f776e657220697320746865207a65726f206160008201527f6464726573730000000000000000000000000000000000000000000000000000602082015250565b7f4552433732313a207472616e736665722066726f6d20696e636f72726563742060008201527f6f776e6572000000000000000000000000000000000000000000000000000000602082015250565b7f4552433732313a20746f6b656e20616c7265616479206d696e74656400000000600082015250565b7f4552433732313a207472616e7366657220746f20746865207a65726f2061646460008201527f7265737300000000000000000000000000000000000000000000000000000000602082015250565b7f4552433732313a20617070726f766520746f2063616c6c657200000000000000600082015250565b7f4552433732313a206f70657261746f7220717565727920666f72206e6f6e657860008201527f697374656e7420746f6b656e0000000000000000000000000000000000000000602082015250565b7f4552433732313a20617070726f76652063616c6c6572206973206e6f74206f7760008201527f6e6572206e6f7220617070726f76656420666f7220616c6c0000000000000000602082015250565b7f4552433732313a2062616c616e636520717565727920666f7220746865207a6560008201527f726f206164647265737300000000000000000000000000000000000000000000602082015250565b7f4552433732313a206f776e657220717565727920666f72206e6f6e657869737460008201527f656e7420746f6b656e0000000000000000000000000000000000000000000000602082015250565b7f6e6f7420656e6f75676820455448207761732073656e74000000000000000000600082015250565b7f4552433732313a206d696e7420746f20746865207a65726f2061646472657373600082015250565b7f796f752776652072656163686564204d415820414d4f554e5400000000000000600082015250565b7f4552433732313a20617070726f76656420717565727920666f72206e6f6e657860008201527f697374656e7420746f6b656e0000000000000000000000000000000000000000602082015250565b7f4552433732314d657461646174613a2055524920736574206f66206e6f6e657860008201527f697374656e7420746f6b656e0000000000000000000000000000000000000000602082015250565b7f4f776e61626c653a2063616c6c6572206973206e6f7420746865206f776e6572600082015250565b7f4552433732313a20617070726f76616c20746f2063757272656e74206f776e6560008201527f7200000000000000000000000000000000000000000000000000000000000000602082015250565b7f4552433732313a207472616e736665722063616c6c6572206973206e6f74206f60008201527f776e6572206e6f7220617070726f766564000000000000000000000000000000602082015250565b61348881612d09565b811461349357600080fd5b50565b61349f81612d1b565b81146134aa57600080fd5b50565b6134b681612d27565b81146134c157600080fd5b50565b6134cd81612d73565b81146134d857600080fd5b5056fea26469706673582212202696cbe58cc1096571618774c26ab496ec0f20943e127dcef4504ef9a2455d8164736f6c63430008060033",
  "immutableReferences": {},
  "source": "// SPDX-License-Identifier: MIT\r\npragma solidity ^0.8.6;\r\nimport \"@openzeppelin/contracts/token/ERC721/ERC721.sol\";\r\nimport \"@openzeppelin/contracts/access/Ownable.sol\";\r\nimport \"@openzeppelin/contracts/utils/Counters.sol\";\r\n\r\n\r\ncontract ARTCollectible is Ownable, ERC721 {\r\nusing Counters for Counters.Counter;\r\nCounters.Counter private _tokenIDs;\r\nusing Strings for uint256;\r\nmapping(uint256 => string) private _tokenURIs;\r\nuint public totalSupply=0;\r\nuint constant public MAX_AMOUNT=500;\r\nuint constant public MAX_TOKEN_ACCOUNT=100;\r\nuint constant public LISTING_PRICE = 0.01 ether;\r\nstring private _baseURIextended;\r\n\r\nconstructor() ERC721(\"artgateCollectible\", \"ARTG\"){\r\n    }\r\n\r\n    function mintfromWeb(uint tokenQuantity, string memory _tokenURI) external payable{\r\n        require(totalSupply + tokenQuantity <= MAX_AMOUNT, \"project sold out\");\r\n        require(LISTING_PRICE*tokenQuantity <= msg.value, \"not enough ETH was sent\");\r\n        require(balanceOf(msg.sender) +  tokenQuantity <= MAX_TOKEN_ACCOUNT, \"you've reached MAX AMOUNT\");\r\n\r\n           claimItem(_tokenURI);\r\n           totalSupply++;\r\n    \r\n    }\r\n\r\n    function setBaseURI(string memory baseURI_) external onlyOwner{\r\n        _baseURIextended = baseURI_;\r\n    }\r\n\r\n    function _setTokenURI(uint256 tokenId, string memory _tokenURI)\r\n        internal\r\n        virtual\r\n        {\r\n            require(\r\n                _exists(tokenId),\r\n                \"ERC721Metadata: URI set of nonexistent token\");\r\n            _tokenURIs[tokenId] = _tokenURI;\r\n        }\r\n\r\n    function _baseURI() internal view virtual override returns (string memory){\r\n        return _baseURIextended;\r\n    }\r\n\r\n    function tokenURI(uint256 tokenId) public view virtual override returns (string memory)\r\n    {\r\n\r\n    require(\r\n        _exists(tokenId), \r\n        \"ERC721Metadata: URI set of nonexistent token\"\r\n    );\r\n\r\n    string memory _tokenURI = _tokenURIs[tokenId];\r\n    string memory base = _baseURI();\r\n\r\n    //no baseURI needed\r\n    if(bytes(base).length == 0){\r\n        return _tokenURI;\r\n    }\r\n    \r\n    return string(abi.encodePacked(base, tokenId.toString()));\r\n\r\n    }\r\n    \r\n    function claimItem(string memory tokenURI1) private returns (uint256){\r\n         _tokenIDs.increment();\r\n         uint256 newItemId =  _tokenIDs.current();\r\n         _safeMint(msg.sender, newItemId);\r\n         _setTokenURI(newItemId, tokenURI1);\r\n       \r\n       return newItemId;\r\n     \r\n     }\r\n\r\n    function withdraw(address treasury) external payable onlyOwner{\r\n        require(payable(treasury).send(address(this).balance));\r\n    }\r\n}\r\n",
  "sourcePath": "C:\\Users\\Resa\\Documents\\Visual Studio 2017\\p5example\\contracts\\ARTCollectible.sol",
  "compiler": {
    "name": "solc",
    "version": "0.8.6+commit.11564f7e.Emscripten.clang"
  },
  "schemaVersion": "3.4.3",
  "updatedAt": "2022-08-15T11:07:16.215Z",
  "networkType": "ethereum",
  "devdoc": {
    "kind": "dev",
    "methods": {
      "approve(address,uint256)": {
        "details": "See {IERC721-approve}."
      },
      "balanceOf(address)": {
        "details": "See {IERC721-balanceOf}."
      },
      "getApproved(uint256)": {
        "details": "See {IERC721-getApproved}."
      },
      "isApprovedForAll(address,address)": {
        "details": "See {IERC721-isApprovedForAll}."
      },
      "name()": {
        "details": "See {IERC721Metadata-name}."
      },
      "owner()": {
        "details": "Returns the address of the current owner."
      },
      "ownerOf(uint256)": {
        "details": "See {IERC721-ownerOf}."
      },
      "renounceOwnership()": {
        "details": "Leaves the contract without owner. It will not be possible to call `onlyOwner` functions anymore. Can only be called by the current owner. NOTE: Renouncing ownership will leave the contract without an owner, thereby removing any functionality that is only available to the owner."
      },
      "safeTransferFrom(address,address,uint256)": {
        "details": "See {IERC721-safeTransferFrom}."
      },
      "safeTransferFrom(address,address,uint256,bytes)": {
        "details": "See {IERC721-safeTransferFrom}."
      },
      "setApprovalForAll(address,bool)": {
        "details": "See {IERC721-setApprovalForAll}."
      },
      "supportsInterface(bytes4)": {
        "details": "See {IERC165-supportsInterface}."
      },
      "symbol()": {
        "details": "See {IERC721Metadata-symbol}."
      },
      "tokenURI(uint256)": {
        "details": "See {IERC721Metadata-tokenURI}."
      },
      "transferFrom(address,address,uint256)": {
        "details": "See {IERC721-transferFrom}."
      },
      "transferOwnership(address)": {
        "details": "Transfers ownership of the contract to a new account (`newOwner`). Can only be called by the current owner."
      }
    },
    "version": 1
  },
  "userdoc": {
    "kind": "user",
    "methods": {},
    "version": 1
  }
}